:100000000C94AC010C94D4010C94D4010C94D40144
:100010000C94D4010C94D4010C94D4010C94D4010C
:100020000C94D4010C94D4010C9431160C94AF169A
:100030000C94D4010C94D4010C94D4010C94D401EC
:100040000C94D4010C94D4010C94D4010C94D401DC
:100050000C94D4010C94D4010C94D4010C94E715A5
:100060000C94D4010C94D4010C94D4010C94D401BC
:100070000C94D4010C94D4010C94D4010C94D401AC
:100080000C94E1180C94D4010C94D4010C94D40178
:100090000C94D4010C94D4010C94D4010C94D4018C
:1000A0000C94D4010C94D4010C94D401080B0002DC
:1000B0000202000009040000010202000005240001
:1000C0001001052401010104240206052406000193
:1000D0000705810310004009040100020A00000026
:1000E00007050202400000070583024000000403E8
:1000F000090412010002EF02014041233780000190
:100100000102030141726475696E6F204C4C43001B
:1001100041726475696E6F204D6963726F000000F3
:100120000000240027002A002D00300000000000FD
:100130002300260029002C002F00000000020009E7
:100140000F0000030401000C00000000000000008C
:10015000000000000000000000080008000900097D
:10016000000A000A000B000C000C000D000E000F2E
:1001700000100011001200130014001500170018E1
:100180000019001B001D001E002000220024002674
:100190000029002B002E003100330037003A003DCB
:1001A000004100450049004D00520057005C0062CC
:1001B0000067006E0074007B0082008A0092009B42
:1001C00000A400AE00B900C400CF00DC00E900F7D5
:1001D00000050115012501370149015D0172018802
:1001E000019F01B801D201EE010B022A024B026EFF
:1001F000029302BA02E40210033F037003A403DC7B
:1002000003170455049704DD0427057505C8052068
:10021000067E06E0064907B8072E08AA082E09BA86
:10022000094E0AEB0A910B410CFC0CC10D930E71A7
:100230000F5C1055115D1274139C14D61522178390
:1002400018F819831B261DE21EB820AA22BA24E939
:10025000263929AD2B452E063104080201104080B5
:10026000401020408040800802040180402010029D
:1002700001108010204040200000000025002800D0
:100280002B002E00310004040404040304050202C0
:10029000020204030202020206060606060604041F
:1002A00002020204040300000000000000002A2BE8
:1002B0002800000000000000000000000000000016
:1002C0000000000000002C9EB4A0A1A2A434A6A7A8
:1002D000A5AE362D3738271E1F20212223242526A0
:1002E000B333B62EB7B89F8485868788898A8B8C6E
:1002F0008D8E8F909192939495969798999A9B9CB6
:100300009D2F3130A3AD350405060708090A0B0CF3
:100310000D0E0F101112131415161718191A1B1C95
:100320001DAFB1B0B50005010906A10185020507A1
:1003300019E029E71500250175019508810295014D
:1003400075088103950675081500257305071900C2
:1003500029738100C000551911241FBECFEFDAE0C8
:10036000DEBFCDBF17E0A0E0B1E0E6E4F2E402C0FA
:1003700005900D92A239B107D9F72AE0A2E9B7E0BA
:1003800001C01D92A83CB207E1F711E0CCEAD1E030
:1003900004C02197FE010E94F61FCB3AD107C9F78E
:1003A0000E94DD1B0C9421210C94000020917809FF
:1003B000309179092115310569F0E4E3F1E081E03C
:1003C00090E0419151912417350731F001968A3020
:1003D0009105B9F781E090E0089581508F3008F0E1
:1003E00047C0E82FF0E0E950FE4F0C94F61F1402CE
:1003F000180206020C0210023802380238021B02F0
:100400002102250229022F02380233028091800046
:100410008F77809380000895809180008F7DF9CF41
:1004200080918000877FF5CF84B58F7784BD089554
:1004300084B58F7DFBCF809190008F778093900063
:100440000895809190008F7DF9CF80919000877FF3
:10045000F5CF8091C0008F778093C0000895809180
:10046000C0008F7DF9CF8091C200877F8093C2004A
:100470000895CF93DF93282F30E0F901E65CFE4F1B
:100480008491F901E75AFD4FD491F901EA57FD4FE4
:10049000C491CC23A1F081110E94ED01EC2FF0E07A
:1004A000EE0FFF1FE45DFE4FA591B491EC91ED239B
:1004B00081E090E009F480E0DF91CF91089580E041
:1004C00090E0FACFCF93DF9390E0FC01E75AFD4F25
:1004D00024918A579D4FFC0184918823C9F090E0B4
:1004E000880F991FFC01E25EFE4FA591B491FC01BB
:1004F000E858FD4FC591D49161110DC09FB7F89494
:100500008C91209582238C938881282328839FBFF8
:10051000DF91CF910895623051F49FB7F8943C91E8
:10052000822F809583238C93E8812E2BEFCF8FB77A
:10053000F894EC912E2B2C938FBFEACF8F929F9241
:10054000AF92BF92CF92DF92EF92FF92CF936B0167
:1005500090911301891769F09F3F09F486C0CF91EC
:10056000FF90EF90DF90CF90BF90AF909F908F90D3
:100570000895E5EAF2E0C491C7FDF1CF61E00E9481
:100580006202CC2319F0C23009F047C1F12CE12CF2
:1005900060E072E18AE790E0A70196010E94D71F10
:1005A00049015A01BA01A901415051096109710972
:1005B0004F3F51056105710509F00CF413C160E46A
:1005C00072E48FE090E0A70196010E94D71FBA0164
:1005D000A9014150510961097109C23009F0E3C014
:1005E0004F3F51056105710509F00CF4B8CF60E982
:1005F00070ED83E090E0A70196010E94D71F2130A3
:100600003140410551050CF4AACF68E478EE81E051
:1006100090E0A70196010E94D71F2130314041058B
:1006200051050CF49CCF64E274EF80E090E0A701E8
:1006300096010E94D71F21503109410951092F3FCE
:1006400031054105510509F008F489CF62E17AE7E7
:1006500080E090E0A70196010E94D71FBA01A9018E
:10066000415051096109710988C180931301E5EA7C
:10067000F2E0C491CF3F09F472CFC13051F160F084
:10068000C33009F448C0C43009F46BC0C7FD67CF5C
:1006900061E00E94620277CF14BC15BC94B59260F1
:1006A00094BD95B5916095BD282F30E0F901EA57CA
:1006B000FD4FE491F0E0EE0FFF1FE858FD4F45912C
:1006C0005491F901E75AFD4FE491E093CF08C0E05F
:1006D00055CF109280001092810090918100986017
:1006E0009093810090918100916090938100282FD8
:1006F00030E0F901EA57FD4FE491F0E0EE0FFF1F03
:10070000E858FD4F45915491F901E75AFD4FE491A6
:10071000E093CE0833CF1092900010929100909108
:1007200091009860909391009091910091609093C6
:100730009100282F30E0F901EA57FD4FE491F0E0F5
:10074000EE0FFF1FE858FD4F459154915093CD088F
:100750004093CC08F901E75AFD4FE491E093CB08B0
:100760000DCF1092C0001092C1009091C10098600E
:100770009093C1009091C10091609093C100282F87
:1007800030E0F901EA57FD4FE491F0E0EE0FFF1F72
:10079000E858FD4F45915491F901E75AFD4FE49116
:1007A000E093CA08EBCE4F3F51056105710599F101
:1007B00094F168E478EE81E090E0A70196010E9450
:1007C000D71FBA01A9014150510961097109CC2310
:1007D00009F4BBC04F3F51056105710511F00CF0E4
:1007E000BCC049C081E0C111DBC095B5987F892BA1
:1007F00085BD47BD8FEF9FEFDC018093DC089093B0
:10080000DD08A093DE08B093DF0880916E0082605F
:1008100080936E00A4CE82E0E6CFF12CE12C60E064
:1008200072E18AE790E0A70196010E94D71FBA0102
:10083000A901415051096109710991E04115510522
:1008400081E0680771057CF068E478EE81E090E073
:10085000A70196010E94D71FBA01A9014150510971
:100860006109710993E0C130D9F480918100887FDA
:10087000892B8093810050938900409388008FEFEB
:100880009FEFDC018093D8089093D908A093DA08F1
:10089000B093DB0880916F00826080936F005FCE21
:1008A000C330D9F480919100887F892B8093910087
:1008B00050939900409398008FEF9FEFDC01809355
:1008C000D4089093D508A093D608B093D708809108
:1008D000710082608093710042CEC43009F060C024
:1008E0008091C100887F892B8093C1004093CF0005
:1008F0008FEF9FEFDC018093D0089093D108A093F5
:10090000D208B093D3088091720080648093720003
:1009100026CEC33069F2C43049F321CE84E04F3F84
:1009200051056105710509F008F45FCFB501A40117
:100930008AE075956795579547958A95D1F7415007
:1009400051096109710985E050CF83E04F3F51059E
:100950006105710509F00CF448CF62E17AE780E0A7
:1009600090E0A70196010E94D71FBA01A90141504A
:10097000510961097109CC2389F24F3F5105610585
:10098000710571F068F0B501A4019AE0759567955D
:10099000579547959A95D1F74150510961097109C9
:1009A000C13009F468CF0CF0B4CFC111D8CD21CF3C
:1009B000862F642F0C9462023FB7F8948091C6088A
:1009C0009091C708A091C808B091C90826B5A89B06
:1009D00005C02F3F19F00196A11DB11D3FBFBA2FD1
:1009E000A92F982F8827BC01CD01620F711D811D91
:1009F000911D42E0660F771F881F991F4A95D1F716
:100A000008958F929F92AF92BF92CF92DF92EF9212
:100A1000FF924B015C010E94DC046B017C010E948F
:100A2000DC046C197D098E099F09683E73408105BD
:100A30009105A8F321E0821A9108A108B10888EE77
:100A4000C80E83E0D81EE11CF11C81149104A1049E
:100A5000B10429F7FF90EF90DF90CF90BF90AF9057
:100A60009F908F9008952FB7F8946091C20870916D
:100A7000C3088091C4089091C5082FBF0895809342
:100A8000E9008091F200882319F08AE38093E8005E
:100A900008954091A5075091A6072091A307309192
:100AA000A40742175307B4F49091E8009570E1F35E
:100AB0009091E80092FD19C08093F1008091A50704
:100AC0009091A60701968F739927892B19F48EEFC1
:100AD0008093E8008091A5079091A60701969093D6
:100AE000A6078093A50781E0089580E00895EF921E
:100AF000FF920F931F93CF93DF93F82E192FE62EBB
:100B0000042F81E0860F880F0E94490583E00E9430
:100B10004905CF2DD12FEC0EFD2EF11CCE15DF0592
:100B2000B9F007FF13C0FE0184910E944905182FF8
:100B300080E00E944905812321968111EFCFDF914A
:100B4000CF911F910F91FF90EF9008958881EDCF85
:100B500081E0F5CFDF92EF92FF920F931F93CF9337
:100B6000DF93D82E8A01EB017B01E40EF51ECE1532
:100B7000DF0559F0D7FE12C0FE0184910E9449059D
:100B800021968111F4CF0FEF1FEFC801DF91CF91B4
:100B90001F910F91FF90EF90DF9008958881EECF25
:100BA0002FB7F89487708093E9009091E800892F1F
:100BB000807295FF04C09091F20080E4891B2FBFE2
:100BC00008957F928F929F92AF92BF92CF92DF92C1
:100BD000EF92FF920F931F93CF93DF93C82E8B0159
:100BE0007A018091AC07811110C08FEF9FEFDF91E8
:100BF000CF911F910F91FF90EF90DF90CF90BF901A
:100C0000AF909F908F907F9008958091AA0780FF6A
:100C100005C08091E00082608093E000CE2DDF2D42
:100C2000D12C8AEFB82E8C2D8770982E8C2D807247
:100C3000882E8C2D8074782E9AE3A92E209719F493
:100C4000DD2009F452C08C2D0E94D00581110AC00C
:100C5000BA94BB2051F261E070E080E090E00E9425
:100C60000105ECCF8C171D0611F00CF08C2F9FB7EF
:100C7000F8949092E9002091E80025FD02C09FBF02
:100C8000DDCF282F30E0C21BD30B882029F0815004
:100C9000A0F01092F100FBCFF801C7FC0AC0815010
:100CA00050F041914093F100FACF44914093F1000C
:100CB00031968150D0F7020F131FDD2021F0A09252
:100CC000E800D12CDCCF8091E80085FD07C0A09220
:100CD000E800DD24D394209791F2F3CF209779F6A2
:100CE000772069F2A092E800CACF5D9A84E68093EB
:100CF000A907C7017CCFCF93DF9300D000D0CDB739
:100D0000DEB790E020E838E0662319F09FE720E99D
:100D100039E039832A838B839C838091680944E07E
:100D200050E0BE016F5F7F4F8F5F0E94E1058091B1
:100D300068098F5F0E943F050F900F900F900F90F2
:100D4000DF91CF9108959091AC07992319F13FB7A6
:100D5000F89487708093E9008091F20090E0481742
:100D600059070CF4CA01282FFB0154E6215038F032
:100D7000289A5093A8074091F1004193F7CF00972C
:100D800039F02091F200211103C02BE62093E800F6
:100D90003FBF08958FEF9FEF08959FB7F894877036
:100DA0008093E9008091F2009FBF0895615030F078
:100DB0002091F100FC0120830196F8CF289A84E667
:100DC0008093A8070895CF93DF939091130189131F
:100DD0000FC0E5EAF2E0E4919FEF90931301E13058
:100DE00079F158F1E33009F431C0E43009F434C04A
:100DF000282F30E0F901E65CFE4F8491F901E75AB3
:100E0000FD4FD491F901EA57FD4FC491CC2391F0E5
:100E100081110E94ED01EC2FF0E0EE0FFF1FE8586A
:100E2000FD4FA591B4918FB7F894EC91D095DE2346
:100E3000DC938FBFDF91CF91089510926E00D8CFD1
:100E400090916F009D7F90936F00D2CF9091710031
:100E50009D7F90937100CCCF909172009F7B909377
:100E60007200C6CF80919B0781110DC082E08093F4
:100E7000970784E08093980710929A071092990739
:100E800081E080939B0787E997E008950F931F9374
:100E9000CF93DF931F92CDB7DEB782E0898342E420
:100EA00050E06CEA70E080E80E94AA050E943207D8
:100EB000DC0112960D911C910115110589F0D801E4
:100EC000ED91FC910280F381E02DBE016F5F7F4FB9
:100ED000C801099597FD04C0F80100851185ECCF84
:100EE00089810F90DF91CF911F910F910895CF933A
:100EF000DF93FC01DB01818114963C911497682FEC
:100F0000630F7727771F683071059CF5C281D38105
:100F1000209739F5B383A283908112969C93129700
:100F200013968C93139715968C911597890F808340
:100F300090E080E0831708F52181C22FD0E0BE0148
:100F400060507F4F16964D915C911797480F591F2F
:100F5000EA014881EB0148832F5F21830196EACFA4
:100F6000EA014885598541155105D1F7B987A88708
:100F7000D3CF80E0DF91CF91089581E0FBCFEF9256
:100F8000FF921F93CF93DF931F92CDB7DEB77C0103
:100F90008091410981112CC011E010933409109304
:100FA00035098AE399E090933709809336091092C6
:100FB0003909109238098CE591E0909331098093BA
:100FC000300910923C0910923B0910923E09109290
:100FD0003D0910933F091093400981EC80933A0931
:100FE0000E94320760E379E00E947707109341097D
:100FF00082E0898341E050E0BE016F5F7F4F8091C6
:1010000033090E94E10597FD08C08091330948E04B
:1010100050E0B70180640E94E1050F90DF91CF910D
:101020001F91FF90EF900895CF93DF93EC01809193
:101030001201882331F083E00E94E1051816190699
:1010400034F081E090E09B838A8380E090E0DF9140
:10105000CF910895CF93DF931F92CDB7DEB7698309
:10106000DC01ED91FC910280F381E02D41E050E044
:10107000BE016F5F7F4F09950F90DF91CF9108956B
:1010800083E00C943F0583E00E94D00590E0089532
:10109000CF93DF931F92CDB7DEB7FC018485958592
:1010A00097FD08C02FEF3FEF358724870F90DF9122
:1010B000CF91089541E050E0BE016F5F7F4F82E025
:1010C0000E94A306019719F4898190E0EFCF8FEF7A
:1010D0009FEFECCF0F931F93CF93DF931F92CDB76A
:1010E000DEB78C01FC018485958597FF0FC041E038
:1010F00050E0BE016F5F7F4F82E00E94A306019720
:1011000071F4898190E0F80195878487F8018485DE
:1011100095850F90DF91CF911F910F9108958FEFDB
:101120009FEFF1CFFC018485958597FD06C082E095
:101130000E94CD0690E00196089582E00E94CD06BF
:1011400090E00895DC01FB0112962C9112978481A6
:1011500095812817190641F491818081813A31F4F3
:101160009D7F81E0913009F080E008958132E1F7C0
:101170009B3029F482811F968C9381E008959A30E8
:1011800099F7828150968C93F8CFDC01FB0188E4BB
:10119000808389E4818384E482831D969C911D97DA
:1011A0009F709F5B93831D968D919C9124E09695F3
:1011B00087952A95E1F78F708F5B848385E008958A
:1011C000EF92FF920F931F93CF93DF93FB01208148
:1011D000213871F52381223259F5DC0112964C91A8
:1011E000248135814217130619F5EC010B851C8506
:1011F000F12CE12C0115110589F0F801448155818C
:101200006281738180E80E94AA058F3F980749F0A8
:10121000E80EF91ED8010D911C91ECCF81E08F876B
:10122000C701DF91CF911F910F91FF90EF9008952B
:1012300090E080E0F6CFCF93DF93CDB7DEB769972C
:101240000FB6F894DEBF0FBECDBFFC01DB018C9161
:101250008F5F8C939E012D5F3F4F8DE0D9011D92D2
:101260008A95E9F729E0298384E08A8391E09D83C8
:1012700083E08E832A8721E22B879C879D879F8727
:1012800022E2288B27E02B8B25E02C8B8E8B20E411
:1012900030E0388F2F8B998F82818B83958586855F
:1012A000998B8A8B838180688D8B49E150E0BE01E8
:1012B0006F5F7F4F80E00E94AA0569960FB6F89491
:1012C000DEBF0FBECDBFDF91CF910895CF92DF92E9
:1012D000EF92FF920F931F93CF93DF936C01EB017B
:1012E0007B01E40EF51E10E000E0CE15DF0581F075
:1012F00069916D30D1F3D601ED91FC910190F081AF
:10130000E02DC6010995892B19F00F5F1F4FEDCF16
:10131000C801DF91CF911F910F91FF90EF90DF9067
:10132000CF900895DC016838A0F06858FD0186E090
:10133000662321F09681961301C016828150319662
:101340008111F6CFCD0104960E94BF0781E090E0A5
:101350000895862F90E067FF13C0FC01E058F10963
:1013600081E090E001C0880FEA95EAF78095149635
:101370009C911497892314968C93149760E0D6CF90
:101380001C96ED91FC911D97E80FF91F649166235F
:10139000E1F0862F807C803C69F414968C91149740
:1013A0008F7B14968C9314976F73623309F0BECFC2
:1013B00064E6BCCF67FFF9CF14968C9114978D7FAC
:1013C00014968C9314976F77F0CF90E080E0089597
:1013D000DC01683888F1685816968C911697861744
:1013E00021F117968C9117978617F9F018968C9122
:1013F00018978617D1F019968C9119978617A9F02E
:101400001A968C911A97861781F01B968C911B97D0
:10141000861759F0FD01369690E080E02191211168
:101420004FC08A0F9B1FFC016683CD0104960E946A
:10143000BF0781E090E00895862F90E067FF12C01B
:10144000FC01E058F10921E030E001C0220FEA95EB
:10145000EAF714968C911497822B14968C93149718
:1014600060E0BACF1C96ED91FC911D97E80FF91F33
:101470006491611109C081E090E013969C938E9372
:10148000129790E080E00895862F807C803C69F47C
:1014900014968C911497806414968C9314976F73A0
:1014A000623309F099CF64E697CF67FFF9CF1496BE
:1014B0008C911497826014968C9314976F77F0CF69
:1014C00001968630910509F0A9CFD5CFEF92FF9212
:1014D0001F93CF93DF93EC01162F0E94E8097C0144
:1014E000612FCE010E949209C7019927DF91CF9108
:1014F0001F91FF90EF900895089590E080E0089587
:1015000090E080E0089580E008950F931F93CF93BB
:10151000DF93CDB7DEB7C456D1090FB6F894DEBF5E
:101520000FBECDBFFC01DB019C919E5F9C939E0191
:10153000295F3F4F8AE5D9011D928A95E9F788E036
:1015400089838BE08A8322E02C8391E09D839E83B4
:1015500039E0398764E06A879E879F873A8B44E247
:101560004B8B9C8BA0E0B1E0BE8BAD8B09E010E013
:10157000188F0F8B998F3B8F6C8F2F8F98A353E011
:1015800059A387E08CA34DA39EA3B8A7AFA3A1E462
:10159000B0E0BAA7A9A786E08BA74CA72DA79EA766
:1015A0009FA789AB4AAB2BAB2CAB2DAB3FAB48AF66
:1015B00059AF9AAF5BAF9CAF2DAF9EAF21963FAFB7
:1015C000219722964FAF229723965FAF23972496B9
:1015D0002FAF249725966FAF259726969FAF269716
:1015E00027969FAF279728969FAF28972A963FAFB9
:1015F0002A9745E02B964FAF2B972D962FAF2D971F
:1016000060E470E02F967FAF6EAF2F9763964FAF79
:10161000639785E264968FAF649765969FAF6597F1
:1016200066969FAF669767969FAF679768963FAF3E
:10163000689769964FAF69976B962FAF6B976D96CA
:101640007FAF6EAF6D97A1964FAFA197A2968FAF68
:10165000A297A3969FAFA397A4969FAFA497A59692
:101660005FAFA59792819B839B879F5F9A8F9D8F8A
:1016700083812C968FAF2C978F5F80686A968FAF8F
:101680006A9744E650E0BE016F5F7F4F80E00E94A2
:10169000AA05CC59DF4F0FB6F894DEBF0FBECDBF01
:1016A000DF91CF911F910F910895CF93E82FF0E034
:1016B000EE0FFF1FE75AFE4F65917491C091AD0781
:1016C0008C2F0E949E0264EB70E080E090E00E940C
:1016D00001058C2F0E94E3066CE370E080E090E04F
:1016E000CF910C940105CF93E82FF0E0EE0FFF1F90
:1016F000E75AFE4F65917491C091AD078C2F0E94FF
:101700009E026CE370E080E090E00E9401058C2F67
:101710000E94E3066CE370E080E090E0CF910C94CF
:101720000105FC018685811103C08785882319F096
:101730008089918908958FEF9FEF0895FC0120A182
:1017400031A12115310599F08689978921503109F8
:1017500031A320A3769650E040E04217530748F4A7
:101760004F5F5F4F6281738161937193F6CF0C94E9
:10177000910B08950F931F93CF93DF93EC010E9479
:10178000910B2E85222399F02F85222381F0088941
:1017900019892A893B8941E050E060E070E0401BF4
:1017A000510B620B730B488B598B6A8B7B8BDF91D0
:1017B000CF911F910F910895FC01DC01A60FB71F77
:1017C0001E964C93411111C08685811126C08785D4
:1017D000811126C08FEF9FEF092E000CAA0BBB0BC7
:1017E000808B918BA28BB38B0895CB01B0E0A0E0EE
:1017F000808B918BA28BB38B82859385A485B585D5
:10180000892B8A2B8B2B81F781E090E0A0E0B0E060
:1018100082879387A487B587089590E080E0DCCF26
:1018200081E090E0D9CF4423A9F0DC0190962D917E
:101830003C9191972530310568F4F90131969196E4
:10184000FC93EE9390973A96EE0FFF1FE80FF91F67
:10185000718360830C94DC0BCF92DF92EF92FF9246
:10186000CF93DF93EC016A017B01E881F981028467
:10187000F385E02D70E060E009958823D9F0E881D8
:10188000F9810484F585E02D40E070E060E0CE0150
:1018900009958C819D81C80ED91EE11CF11CCA8658
:1018A000DB86EC86FD86DF91CF91FF90EF90DF9095
:1018B000CF9008958E85882339F0E881F9810484DA
:1018C000F585E02D41E0E1CF1A861B861C861D863A
:1018D000EACF0F931F93DC011A960D911D912D9164
:1018E0003C911D97011511052105310569F040173F
:1018F00051076207730740F0ED91FC910288F3896C
:10190000E02D1F910F9109941F910F910895089553
:10191000DC01ED91FC910484F585E02D0994FC0136
:10192000E60FF71F46876115710591F4FC014285AA
:10193000538564857585452B462B472B59F441E02B
:1019400050E060E070E042875387648775870895B0
:101950000C94880C0895EF92FF920F931F93CF93EE
:10196000DF93EC018B01E42EE881F9810084F1859D
:10197000E02D0995F82EFE01E00FF11FE682E881C7
:10198000F9810084F185E02DCE010995282FF81604
:10199000E1F08A819B81DC01ED91FC91222369F0C9
:1019A000198708870480F581E02DB801DF91CF9178
:1019B0001F910F91FF90EF9009942FEF3FEF398720
:1019C00028870680F781E02DF0CFDF91CF911F911E
:1019D0000F91FF90EF900895860F971FFC0186816D
:1019E0000895CF93DF93EC01E881F9810284F385B8
:1019F000E02D70E060E0099581110BC0E881F9816C
:101A00000284F385E02D61E070E0CE01DF91CF919B
:101A10000994DF91CF910895DC01ED91FC91028052
:101A2000F381E02D0994FC01758364830895CF93BD
:101A3000DF93EC018A819B81009739F0DC01ED9105
:101A4000FC910280F381E02D099584E690E09D836E
:101A50008C83DF91CF910895CF93DF93EC010E94A7
:101A6000170D1A861B861C861D861E861F86DF9113
:101A7000CF910895CF93DF93EC010E942C0D8FEF4F
:101A80009FEFDC01888B998BAA8BBB8B9D8B8C8BFA
:101A9000DF91CF910895CF93DF93EC010E943A0D2F
:101AA00019A218A2DF91CF9108950C943A0DFC0170
:101AB000738362830895FC01428553854530510547
:101AC000C9F030E020E02417350741F0A191B19131
:101AD000A617B70779F02F5F3F4FF5CFF901EE0F4B
:101AE000FF1FE80FF91F718360832F5F3F4FFC01D9
:101AF000338722870895FF920F931F93CF93DF932D
:101B0000EC018B01F42E442319F046960E945B0DE4
:101B10004F2DB801CE01DF91CF911F910F91FF9012
:101B20000C94DC0BFF920F931F93CF93DF93EC0188
:101B30008B01F42E442339F0672B29F470E060E028
:101B400046960E945B0D4F2DB801CE01DF91CF91DB
:101B50001F910F91FF900C94DC0BFF920F931F933A
:101B6000CF93DF93EC018B01F42E442339F0672BE4
:101B700029F470E060E046960E945B0D4F2DB8019D
:101B8000CE01DF91CF911F910F91FF900C94DC0B50
:101B9000FF920F931F93CF93DF93EC018B01F42EF1
:101BA000442319F046960E945B0D4F2DB801CE01DB
:101BB000DF91CF911F910F91FF900C94DC0BFC01F2
:101BC000228533858FEF9FEF2115310591F08081BC
:101BD0009181215031093387228750E040E042173C
:101BE000530738F44F5F5F4F628173816193719344
:101BF000F6CF08950F931F93CF93DF938C01EC01E1
:101C00006696FC018685882329F070E060E0CE01AD
:101C10000E945B0DF8018785882329F061E070E060
:101C2000CE010E945B0DCE01DF91CF911F910F91EC
:101C30000C94DF0D0F931F93CF93DF93EC010E9461
:101C4000BA0B8C01CE0146960E94DF0D8F3F98079C
:101C500009F4C801DF91CF911F910F910895CF939F
:101C6000DF93EC0146960E94DF0D8F3F980751F4F9
:101C70008F8581110AC08E8591E0892790E091952A
:101C800081959109DF91CF91089581E090E0FACF9D
:101C9000CF93DF93EC0146960E94DF0D8F3F9807AC
:101CA00029F4CE01DF91CF910C94910BDF91CF916C
:101CB0000895FC0181850E94390221E0892B09F4F5
:101CC00020E0822F08951F93CF93DF93EC01162F0E
:101CD00062E0812F0E94620219871886CE010E945D
:101CE000590E882319F08885836088870E94330500
:101CF0006A837B838C839D83DF91CF911F910895AD
:101D0000CF92DF92EF92FF920F931F93CF93DF93C7
:101D1000EC0188858B7F8887CE010E94590E182F91
:101D20008885869581701817B9F00E9433056A83FB
:101D30007B838C839D83888592E08927888788852B
:101D400082FB882780F9DF91CF911F910F91FF903F
:101D5000EF90DF90CF9008950E943305CA80DB801A
:101D6000EC80FD80AB01BC014C195D096E097F0957
:101D70008E819F81B0E0A0E0481759076A077B0772
:101D8000F0F2888581701817D1F20E9433056A83BA
:101D90007B838C839D83888591E0892784608887F5
:101DA0000E9433050A851B852C853D85601B710BC0
:101DB000820B930B6E877F87888B998B0E943305EC
:101DC0006A877B878C879D87BACFFC0101900020B2
:101DD000E9F73197AF01481B590BBC0180EE98E041
:101DE0000C9414088F929F92AF92BF920F931F93FF
:101DF000CF93DF93CDB7DEB7A1970FB6F894DEBFD0
:101E00000FBECDBF19A2423008F44AE08E010F5D2B
:101E10001F4F842E912CB12CA12CA50194010E945E
:101E2000B51FE62FB901CA01EA30F4F4E05DD8012C
:101E3000EE938D01232B242B252B79F790E080E066
:101E4000109719F0CD010E94E50EA1960FB6F894F7
:101E5000DEBF0FBECDBFDF91CF911F910F91BF901D
:101E6000AF909F908F900895E95CE1CFCF93DF937F
:101E70000E94E50EEC018CE592E00E94E50E8C0FCD
:101E80009D1FDF91CF91089580917709882301F1FB
:101E900080919A09882339F060E887E599E00E94EB
:101EA000920910929A0980919B09882339F064E87D
:101EB00087E599E00E94920910929B0960E887E506
:101EC00099E00E94920964E887E599E00E949209EE
:101ED0008091770981110BC060E00E947B0660E071
:101EE00081E00E947B0660E082E00E947B06109207
:101EF0009A0910929B0910928009109296091092EB
:101F000097098FE592E00C94360F009711F00C942E
:101F1000E50E90E080E00895BC0190E080E04AE0AA
:101F20000C94F20ECF93DF930E948C0FEC018CE5A2
:101F300092E00E94E50E8C0F9D1FDF91CF910895D6
:101F4000CF92DF92EF92FF92CF93DF9397FF1BC068
:101F50006B017C016DE280EE98E00E942A08EC01A2
:101F600066277727CB016C197D098E099F094AE006
:101F70000E94F20E8C0F9D1FDF91CF91FF90EF908A
:101F8000DF90CF9008954AE0DF91CF91FF90EF90DE
:101F9000DF90CF900C94F20ECF93DF93BC01990F9A
:101FA000880B990B0E94A00FEC018CE592E00E9437
:101FB000E50E8C0F9D1FDF91CF9108958F929F9218
:101FC000AF92BF92EF92FF920F931F93CF93DF9345
:101FD000EC014A015B018C899D8997FD3EC00C8113
:101FE0001D8181E792E00E94850F6C897D89072E13
:101FF000000C880B990B0E94A00F8DE892E00E94C4
:10200000850FC8010E94CC0F6C897D89E881F98118
:102010000484F585E02D40E0CE0109958FEF9FEF18
:102020009D8B8C8B0115110509F44AC0A801110F75
:10203000660B770B480D591D6A1D7B1D4A875B8710
:102040006C877D87DF91CF911F910F91FF90EF906B
:10205000BF90AF909F908F900895E881F981048898
:10206000F589E02DCE0109957C0197FD29C00C81F1
:102070001D8181E0E816F10429F4C801880F991F39
:10208000080F191FFD8AEC8A89E992E00E94850FEA
:10209000B7010F2C000C880B990B0E94A00F87EB47
:1020A00092E00E94850FC8010E94CC0FE881F9815F
:1020B0000484F585E02D41E0B701CE010995B2CF4A
:1020C0001A861B861C861D86BDCF0F931F93CF9348
:1020D000DF938C01C62F67FDCFE782EC92E00E9470
:1020E000850F60E070E0CB010E94A00F88ED92E0C8
:1020F0000E94850F6C2F70E090E080E04AE00E9423
:10210000F20E88EE92E00E94850FEC2FF0E0EE0FC9
:10211000FF1FEF01C75ADE4FFE01859194910E9487
:102120008C0F86EF92E00E94360FFE01C591D4918C
:102130008AEF92E00E94850F60E070E0CB010E9480
:10214000A00F80E193E00E94850FCE010E94920FC4
:10215000F801D183C083209771F41382128280E248
:1021600093E00E94360FF8018481DF91CF911F9197
:102170000F910C94E30682819381C817D907A9F0C7
:10218000D383C2838FE293E00E94850FF80182819E
:1021900093810E94920FF801628173818481DF91A3
:1021A000CF911F910F910C949E02DF91CF911F91BF
:1021B0000F910895CF93DF93EC018AE493E00E949E
:1021C000850F90E080E00E94CC0F198218821B825C
:1021D0001A8280E293E00E94360F8C81DF91CF91CA
:1021E0000C94E306CF93DF93C1E7D9E089859A8504
:1021F0000E94DA1066E489859A850E94651064E67B
:1022000070E080E090E00E94010561E489859A8594
:102210000E94651064E670E080E090E00E94010595
:102220006CE389859A850E94651064E670E080E021
:1022300090E00E94010589859A850E94DA101D8A26
:1022400081E693E0DF91CF910C94360FCF93DF932B
:10225000682F70E090E080E04AE00E94F20EEC010E
:102260008CE592E00E94E50E8C0F9D1FDF91CF91CF
:1022700008958F929F92AF92BF92CF92DF92EF928A
:10228000FF920F931F93CF93DF93FC0121812223B1
:1022900009F480C0142F062FEC010E9433056B0156
:1022A0007C012E85021709F488C0E889F9893097E6
:1022B000B1F4211118C00023B1F08FE793E00E9420
:1022C000850F85E793E0111102C081E793E00E943A
:1022D000850F8FE897E00E94360F1F8756C0E83CB5
:1022E000F10508F052C04E815F816885798546010D
:1022F0005701841A950AA60AB70A2F8530E03327BA
:10230000269537952227A4015F77242B352BAF0123
:102310004F5F5F4F598B488B3996EE0FFF1FEC0FC5
:10232000FD1F318320838EEA93E00E94850F888908
:10233000998901970E948C0F83EB93E00E94850F8F
:102340008E85811134C08CE793E00E94850F87EB66
:1023500093E00E94850F8F85882361F185E793E0E4
:102360000E94850F80EC93E00E94850F4AE0C50132
:10237000B4010E94F20E86EC93E00E94360F011128
:10238000ACCFCA86DB86EC86FD860E87CE82DF82E6
:10239000E886F986DF91CF911F910F91FF90EF9022
:1023A000DF90CF90BF90AF909F908F90089589E776
:1023B00093E0CBCF81E793E0D3CF002359F38F8510
:1023C000181741F31F87E6CF0F931F93CF93DF9327
:1023D000EC018B018F85882341F01F868E89811146
:1023E00004C01B861C861D861E868BA59CA5009797
:1023F00099F0FC012181222379F041E0012B09F4BD
:1024000040E060E00E94391189859A85DF91CF9183
:102410001F910F910C94DA1089859A850E94DA1029
:102420008E8981110CC08E818823A9F0013011059D
:1024300059F060E887E599E00E94920919A6DF91BA
:10244000CF911F910F91089564E887E599E00E946C
:1024500092091AA6F4CF60E081E00115110529F078
:1024600082E00130110509F080E0DF91CF911F91EA
:102470000F910C947B060F931F93CF93DF93EC0186
:102480008B018F85811113C081E08F878E89811127
:102490000EC08B859C85AD85BE85892B8A2B8B2BA9
:1024A00031F40E9433056B877C878D879E878BA5CF
:1024B0009CA50097A1F0FC012181222381F041E03D
:1024C000012B09F440E061E00E9439116A8189859D
:1024D0009A85DF91CF911F910F910C9465108D8992
:1024E000882341F08E89811105C06A8189859A858A
:1024F0000E9465108E8981110DC08E818823B9F0EC
:102500000130110561F060E887E599E00E94E80973
:1025100081E089A7DF91CF911F910F91089564E821
:1025200087E599E00E94E80981E08AA7F3CF61E09E
:1025300081E00115110529F082E00130110509F053
:1025400080E0DF91CF911F910F910C947B06CF9388
:10255000DF93EC018F85882341F01F868E898111DE
:1025600004C01B861C861D861E868BA59CA5009715
:1025700071F0FC012181222351F040E060E00E94D3
:10258000391189859A85DF91CF910C94DA1089856C
:102590009A850E94DA108E89811109C08E81882364
:1025A00049F060E887E599E00E94920919A6DF9159
:1025B000CF91089560E080E0DF91CF910C947B068D
:1025C000CF93DF93EC018F85811113C081E08F875A
:1025D0008E8981110EC08B859C85AD85BE85892B2A
:1025E0008A2B8B2B31F40E9433056B877C878D8778
:1025F0009E878BA59CA5009779F0FC012181222361
:1026000059F040E061E00E9439116A8189859A851C
:10261000DF91CF910C9465108D89882341F08E89CC
:10262000811105C06A8189859A850E9465108E890D
:1026300081110AC08E81882351F060E887E599E016
:102640000E94E80981E089A7DF91CF91089561E0B8
:1026500080E0DF91CF910C947B06CF92DF92EF92D6
:10266000FF920F931F93CF938C01C62F0E943305C7
:1026700001151105A9F420918509CC2331F121110F
:102680000FC06093810970938209809383099093AE
:10269000840981E08093850989EC93E00E94360FDC
:1026A00080918709811164C00230110581F5CC2326
:1026B00009F46EC081E799E0CF911F910F91FF90CF
:1026C000EF90DF90CF900C94E012222349F3C0905A
:1026D0008109D0908209E0908309F09084099B01E0
:1026E000AC012C193D094E095F0969017A018AED97
:1026F00093E00E94850F4AE0C701B6010E94F20EE6
:1027000086EC93E00E94360F10928509C9CF809124
:102710007809909179090097B1F0CC2321F01093BA
:10272000990900939809DC01ED91FC910684F785E5
:10273000E02D4C2FB801CF911F910F91FF90EF909A
:10274000DF90CF90099480917709012B99F5882328
:1027500051F160E887E599E0CC2391F00E94E80907
:1027600081E080939A0980918009882309F4A2CF9F
:10277000CF911F910F91FF90EF90DF90CF90089530
:102780000E94920910929A0980918009882381F30E
:1027900081E799E0CF911F910F91FF90EF90DF902B
:1027A000CF900C94A7126C2F81E00E947B06CC2363
:1027B00059F3D9CF882381F064E887E599E0CC23E9
:1027C00031F00E94E80981E080939B09CCCF0E9400
:1027D000920910929B09D8CF6C2F82E0E6CF0C941F
:1027E000A71F1F93CF93DF93EC01188181E090E046
:1027F0000E949F1F181729F0612F81E090E00E942E
:10280000A71F198182E090E00E949F1F181729F0EE
:10281000612F82E090E00E94A71FCE01DF91CF914F
:102820001F9108950F931F93CF93DF9300D0CDB7DF
:10283000DEB7182F7A836983042F682F90E080E039
:102840000E94EF13CE0101960E94F113602F83E0E6
:1028500090E00E94EF1362E484E090E00E94EF13A6
:102860008EEE93E00E94850F612F70E090E080E093
:102870004AE00E94F20E88E094E00E94850F898170
:102880009A810E948C0F89E194E00E94850F802F2D
:102890000E9426110F900F90DF91CF911F910F9101
:1028A0000895EF92FF920F931F93CF93DF9300D081
:1028B00000D0CDB7DEB7F62E8C01703909F4E4C034
:1028C00070F4703809F4D0C00F900F900F900F90F3
:1028D000DF91CF911F910F91FF90EF900895703B82
:1028E00051F1703C89F780917809909179090097AE
:1028F000B1F0DC01ED91FC910280F381E02D0995AE
:102900008091780990917909DC01ED91FC91068024
:10291000F781E02D099510927909109278090E94AB
:10292000440F0A3008F46BC01092790910927809AC
:1029300087E794E08CC08130B9F188F0823021F6CD
:10294000612F70E0709374096093730982E594E0DD
:102950000E94850F809173099091740942C081E0B3
:10296000103408F480E0809377098CE294E00E94B0
:10297000850F80917709811114C088E294E00E944C
:10298000360FF98280EB8A831B821C838091680951
:1029900044E050E0BE016F5F7F4F8F5F0E94E10512
:1029A00093CF85E294E0EBCF612F70E0660F771F45
:1029B00070937609609375098091780990917909EF
:1029C000009739F0DC01ED91FC910480F581E02D58
:1029D00009958CE394E00E94850F80917509909190
:1029E00076090E94920F00917509109176090E9454
:1029F000D60140917309B8010E94121465CFE02FEF
:102A0000F0E0EE0FFF1FEE5CFE4FE080F180D7019B
:102A1000ED91FC910190F081E02D61E779E0C70133
:102A20000995F0927909E0927809E114F10409F42A
:102A30007FCF6091750970917609D701ED91FC9176
:102A40000480F581E02DC701099583E694E00E949A
:102A5000850F802F0E94261160917509709176096B
:102A600040917309802FC8CF80918609882309F48B
:102A70002BCF80918709811127CF80917A0990917E
:102A80007B090E94DA1020CF80918609882309F4FF
:102A90001BCF80918709811117CF602F80917A0910
:102AA00090917B090E9465100FCF0C949F1FEF92AD
:102AB000FF920F931F93CF93DF9300D0CDB7DEB774
:102AC00084E090E00E945515823409F04FC090E0F8
:102AD00080E00E945515F82E81E090E00E949F1F33
:102AE000898382E090E00E949F1F8A8383E090E0C8
:102AF0000E945515E82E84EA94E00E94850F6F2D00
:102B000070E090E080E04AE00E94F20E88E094E0FD
:102B10000E94850F09811A81C8010E948C0F89E1EA
:102B200094E00E94850F8E2D0E9426111695079520
:102B30006BE070EB81E0902F0E9451146BE070EB22
:102B400082E09E2D0E94511489E08F1530F06CE0D8
:102B500070EC8F2D90E00E9451140F900F90DF9138
:102B6000CF911F910F91FF90EF9008958CEB94E01F
:102B70000E94360F68E090E080E00E94EF1384E648
:102B800090E09A838983CE0101960E94F11365E457
:102B900083E090E00E94EF1360E085E090E00E9407
:102BA000EF1362E484E090E00E94EF1387EE94E07C
:102BB0000E94360F0E945715D0CF84E0E7E1F5E080
:102BC000DB0101900D928A95E1F784E008951F9250
:102BD0000F920FB60F9211242F933F938F939F93D1
:102BE000AF93BF938091C2089091C308A091C4088D
:102BF000B091C5083091C10823E0230F2D3758F557
:102C00000196A11DB11D2093C1088093C208909325
:102C1000C308A093C408B093C5088091C6089091DA
:102C2000C708A091C808B091C9080196A11DB11D9F
:102C30008093C6089093C708A093C808B093C908AA
:102C4000BF91AF919F918F913F912F910F900FBEA8
:102C50000F901F90189526E8230F0296A11DB11D15
:102C6000D2CF1F920F920FB60F9211242F933F9342
:102C70004F935F936F937F938F939F93AF93BF9384
:102C8000CF93EF93FF93C091E1008091E100837FA8
:102C90008093E100C3FF0FC01092E90081E08093B0
:102CA000EB001092EC0082E38093ED001092AC07F1
:102CB00088E08093F000C2FF1BC083E00E943F05C4
:102CC0008091A907882341F08091A90781508093C2
:102CD000A907811101C05D988091A807882341F060
:102CE0008091A80781508093A807811101C028987E
:102CF000C4FF23C08091E2008E7E81608093E20059
:102D00008091E1008F7E8093E1008091AA078E7E02
:102D100080618093AA07FF91EF91CF91BF91AF910E
:102D20009F918F917F916F915F914F913F912F91E3
:102D30000F900FBE0F901F901895C0FFECCF8091A1
:102D4000E2008E7E80618093E2008091E1008E7EC1
:102D50008093E1008091AA078E7E8160DACF1F9276
:102D60000F920FB60F921124CF92DF92EF92FF9243
:102D70000F931F932F933F934F935F936F937F9383
:102D80008F939F93AF93BF93EF93FF93CF93DF9373
:102D9000CDB7DEB76C97DEBFCDBF1092E900809152
:102DA000E80083FF25C068E0CE0145960E94D60664
:102DB00082EF8093E8008D8987FF39C09091E80009
:102DC00090FFFCCF982F907609F034C19E894F89EF
:102DD000588D2F89F88C911131C0803861F5809120
:102DE000AB078093F1001092F1008EEF8093E80022
:102DF0006C960FB6F894DEBF0FBECDBFDF91CF91BA
:102E0000FF91EF91BF91AF919F918F917F916F91C2
:102E10005F914F913F912F911F910F91FF90EF90F4
:102E2000DF90CF900F900FBE0F901F9018959EEFE0
:102E30009093E800C7CF1092F100D5CF913059F4AC
:102E40008111D3CF4130510581F68091AB078D7F41
:102E50008093AB07CACF933049F48111C6CF41307C
:102E6000510519F68091AB078260F2CF953041F49D
:102E70008091E80080FFFCCF20682093E300B5CF6D
:102E8000963009F0A9C00B8D1C8D22E01092E9004C
:102E90001092A6071092A507F2122EC01092A40756
:102EA0001092A3070E9446071F8299E09983FA8235
:102EB00091E09E8390EA98879AEF99872091A507E1
:102EC0003091A607275F3F4F3C832B838D83109261
:102ED000E9001092A6071092A5071093A40700938B
:102EE000A30749E050E0BE016F5F7F4F80E00E9482
:102EF000AA050E94460779CF1093A4070093A30761
:102F00000E943207DC0112960D911C9101151105EA
:102F100009F451C1D801ED91FC910480F581E02DB7
:102F2000BE016B5E7F4FC8010995009709F03EC155
:102F3000F80100851185EACFF3E0FF120EC08F89FA
:102F4000882309F440C0823061F440E86DE080E1FC
:102F500091E00E947705811148CF81E28093EB00D8
:102F600047CF813029F440E86BE084E091E0F1CF75
:102F7000833099F70E943207DC011296ED90FC90A5
:102F80008E010F5F1F4F6801E114F10479F0D70142
:102F9000ED91FC910680F781E02DB801C7010995FC
:102FA000080F111DF701E084F184EECFD8011C92C7
:102FB000F60101900020E9F73197BF016C197D09F6
:102FC00040E0C601C6CF6EEE70E0FB01449150E0D8
:102FD00080E80E94AA0509CF973009F4BECF983047
:102FE00021F481E08093F10000CF993009F0FDCE0B
:102FF000837009F0B2CFE1E0F1E081E031E096E3E7
:103000002191222371F08093E9003093EB00DF01DE
:1030100011972C912093EC009093ED008F5F8730F7
:1030200079F78EE78093EA001092EA008F89809307
:10303000AC07DBCE8B8D9C8D1092E9001092A60719
:103040001092A5079093A4078093A307898D8111FF
:1030500092C08E899D89913A49F4813209F07DCFE1
:1030600047E050E06BE071E080E0B3CF913209F0CF
:1030700074CF833269F48F89988DB0E0A0E080939B
:10308000070190930801A0930901B0930A01ADCE06
:10309000803269F48091E80082FFFCCF67E08BE02A
:1030A00091E00E94D6068BEF8093E8009ECE82329C
:1030B00009F09BCE8F8980931201EEEFFFE7859197
:1030C00094918B3F9C4D51F1E0E0F8E080910B0131
:1030D00090910C01A0910D01B0910E01803B9440A4
:1030E000A105B105F1F48091120180FD1AC0EE3FF7
:1030F0008AE0F80789F587E797E7918380838091D5
:1031000060008093A70788E19BE00FB6F894A8952C
:10311000809360000FBE9093600067CEEEEFFAE000
:10312000D5CF808191818737974709F05ECEA895EA
:10313000809160008861809360008091A7078093F0
:103140006000EE3F2AE0F20789F08091FE0A90913C
:10315000FF0A9183808349CE8081918187379807C8
:1031600051F29093FF0A8093FE0AC5CF1092FF0A96
:103170001092FE0A3ACE0E943207DC0112960D919F
:103180001C910115110509F4E8CED801ED91FC91CF
:103190000190F081E02DBE016B5E7F4FC801099563
:1031A000811123CEF80100851185EBCF1816190681
:1031B0000CF41BCED2CEF1E0FF12BECE62EF70E077
:1031C00004CF1F920F920FB60F9211248F939F93EB
:1031D000AF93BF93EF93FF938091D4089091D5085C
:1031E000A091D608B091D708892B8A2B8B2BA1F1FF
:1031F0009091CB08E091CC08F091CD08808189278F
:1032000080838091D4089091D508A091D608B09180
:10321000D708181619061A061B069CF48091D408C4
:103220009091D508A091D608B091D7080197A1092F
:10323000B1098093D4089093D508A093D608B09391
:10324000D708FF91EF91BF91AF919F918F910F9010
:103250000FBE0F901F901895809171008D7F809305
:1032600071008091CB08E091CC08F091CD0890815D
:10327000809589238083E5CFCF93DF93EC018AE4A7
:1032800092E0998388838FEF9FEF99878887CE019B
:103290000E94170D8EE191E0998388831A861B8620
:1032A0001C861D86DF91CF910895CF92DF92EF9219
:1032B000FF920F931F93CF93DF931092E308109226
:1032C000E20888EE93E0A0E0B0E08093E4089093F9
:1032D000E508A093E608B093E7088AE491E09093AC
:1032E000E1088093E0088FEF9FEF9093ED088093C3
:1032F000EC0810925A091092590988E691E09093CF
:1033000058098093570980914F09811113C0109279
:103310004A091092490986E293E090934C09809300
:103320004B098FE290E090934E0980934D0981E024
:1033300080934F098091410981112CC0C1E0C09355
:103340003409C09335098AE399E090933709809353
:10335000360910923909109238098CE591E0909362
:1033600031098093300910923C0910923B09109268
:103370003E0910923D09C0933F09C093400981EC7A
:1033800080933A090E94320760E379E00E94770750
:10339000C0934109E0913B09F0913C09309709F055
:1033A00003C289E499E090933C0980933B098091A2
:1033B0003D0990913E0920914D0930914E09820FAF
:1033C000931F90933E0980933D0986EA92E0909383
:1033D00064098093630982E08093690980936A0994
:1033E0008FE699E090936C0980936B0910926E09B7
:1033F00010926D0984E791E09093660980936509C6
:1034000080E880936F0981E8809370090E943207F9
:1034100065E679E00E9477072CE831E03093C30934
:103420002093C2091092C4091092C5091092C609CE
:103430001092C7098AE090E09093C9098093C80967
:103440001092CA091092CB093093B1092093B009A8
:103450001092B2091092B3091092B4091092B509F2
:103460009093B7098093B6091092B8091092B909E0
:1034700030939F0920939E091092A0091092A109F0
:103480001092A2091092A3099093A5098093A40910
:103490001092A6091092A70980E891E09093720912
:1034A0008093710985E4C82ED12CD0927409C09202
:1034B000730994E6E92EF12CF0927609E0927509F1
:1034C000C1E0C0937709109279091092780910929F
:1034D0007B0910927A0910927C0910927D09109252
:1034E0007E0910927F091092800910928109109232
:1034F0008209109283091092840910928509C09361
:1035000086091092870910928809109289091092F1
:103510008A0910928B0910928C0910928E091092D0
:103520008D0910928F0910929009109291091092B2
:103530009209109293091092940910929509109291
:103540009609109297091092990910929809109271
:103550009A0910929B0910929D0910929C0985E08E
:1035600090E00E94FC1F8C01DC0111961C921E92BF
:1035700013961C921E9212978AE014968C9361E027
:103580000E94620210937B0900937A09C093860916
:1035900010928709109288091092800910927C0974
:1035A00010927D0910927E0910927F091092810974
:1035B0001092820910928309109284091092850951
:1035C00010928F091092900910929109109292090D
:1035D000109293091092890910928A0910928B090E
:1035E00010928C0910928E0910928D0910929409F4
:1035F00010929509C0937709109279091092780971
:10360000D0927409C0927309F0927609E09275091C
:1036100010929609109297091092990910929809A0
:1036200010929A0910929B098AE492E09093BB0A47
:103630008093BA0ACFEFDFEFD093C30AC093C20AD8
:103640008AEB9AE00E94170D80E1EAEAFAE0DF01D6
:103650001D928A95E9F7CF010E943C1906E1E4E941
:10366000FAE0DF01802F1D928A95E9F7CF010E94D1
:103670003C1980E392E09093950A8093940AD0934A
:10368000A90AC093A80A12E2E2E7FAE0DF01812F5B
:103690001D928A95E9F7CF010E943C19D093870AC1
:1036A000C093860A86E192E09093730A8093720A2F
:1036B0001092930A1092920AE0E5FAE0DF01812F5E
:1036C0001D928A95E9F7CF010E943C19D093650AB3
:1036D000C093640A8CEF91E09093510A8093500A52
:1036E0001092710A1092700AEAE3FAE0DF011D926B
:1036F0000A95E9F7CF010E943C19D0934F0AC09375
:103700004E0A82EE91E090933B0A80933A0AE8E1F8
:10371000FAE0DF01812F1D928A95E9F7CF010E941F
:103720003C19D0932D0AC0932C0A88EC91E0909319
:10373000190A8093180A1092390A1092380AE6EF93
:10374000F9E0DF01812F1D928A95E9F7CF010E94F0
:103750003C19D0930B0AC0930A0A8EEA91E0909329
:10376000F7098093F6091092170A1092160AE4EDF1
:10377000F9E0DF011D921A95E9F7CF010E943C198B
:10378000D093E909C093E80984E991E09093D509C1
:103790008093D409DF91CF911F910F91FF90EF900B
:1037A000DF90CF900895FC01808191810097D9F737
:1037B00089E499E091838083FACDCF93DF9300D0A1
:1037C00000D0CDB7DEB7789484B5826084BD84B56F
:1037D000816084BD85B5826085BD85B5816085BD0C
:1037E00080916E00816080936E00109281008091C4
:1037F000810082608093810080918100816080934C
:103800008100809180008160809380008091910090
:1038100082608093910080919100816080939100FB
:10382000809190008160809390008091C1008460BD
:103830008093C1008091C10082608093C10080911B
:10384000C10081608093C1008091C300816080933A
:10385000C3008091C00082608093C0008091C2004C
:1038600081608093C20080917A00846080937A00A6
:1038700080917A00826080937A0080917A008160E2
:1038800080937A0080917A00806880937A00109209
:10389000AC071092AB071092AA078091D700816005
:1038A0008093D70080EA8093D80089B5806189BD74
:1038B00089B5826089BD09B400FEFDCF61E070E08A
:1038C00080E090E00E9401058091D8008F7C8061AB
:1038D0008093D8008091E000807F8093E000809109
:1038E000E1008E7E8093E1008DE08093E200559AA6
:1038F000209A5D9828988FEF9FEF9093ED08809322
:10390000EC0864EF71E080E090E00E9401058CE13A
:1039100095E00E94850F89E395E00E94360F62E0F2
:1039200070E082EC99E00E94630E61E070E080EB51
:1039300099E00E94630E70E060E08EE999E00E94D9
:10394000630E8AE090E09093AE078093AD0784E029
:1039500090E00E945515823409F0ECC183E090E0BC
:103960000E945515182F82E795E00E94360F812F8F
:103970000E94730B812F0E94730B812F0E94730B87
:10398000812F0E94550B68E770E080E090E00E9474
:103990000105812F0E94730B812F0E94550B68E750
:1039A00070E080E090E00E940105812F0E94730B7F
:1039B000812F0E94730B68E770E080E090E00E9426
:1039C0000105812F0E94730B812F0E94550B812FBF
:1039D0000E94730B812F0E94730B8AE00E94E30602
:1039E0000E94571587E995E00E94850F0E94D60135
:1039F000682F70E090E080E04AE00E94F20E89EBD0
:103A000095E00E94850F80917509909176090E943A
:103A10008C0F89E194E00E94850F809173090E94C8
:103A200026118FEC95E00E94850F809186098823EE
:103A300009F486C185E294E00E94360F82EE95E09B
:103A40000E94850F80918709882309F47CC185E253
:103A500094E00E94360F89EF95E00E94850F8091D7
:103A60008809882309F472C185E294E00E94360F28
:103A700086EA92E0909364098093630980916809D3
:103A80008F5F0E943F050E94440F00E110E064E157
:103A900070E080E090E00E94010580EB99E00E94D8
:103AA000800E0150110999F78091B80980FD07C077
:103AB00081E08093BC0886E196E00E94360F48EED4
:103AC000242E43E0342E412C512C0E9433056B01EF
:103AD0007C018091AF089091B008A091B108B0919D
:103AE000B2084091B3085091B4086091B508709144
:103AF000B608841B950BA60BB70B8F739927AA27C3
:103B0000BB27892B8A2B8B2B09F423C18091B30807
:103B10009091B408A091B508B091B608880F991F8C
:103B2000880F991FFC01E155F84F108171800281C7
:103B300063804091AF085091B0086091B1087091D6
:103B4000B2088091B3089091B408A091B508B091E3
:103B5000B608481759076A077B07B9F08091B30880
:103B60009091B408A091B508B091B6080196A11D36
:103B7000B11D8F739927AA27BB278093B308909311
:103B8000B408A093B508B093B6088091850988233E
:103B900059F180918609882339F1809181099091AA
:103BA0008209A0918309B091840946015701881ABE
:103BB000990AAA0ABB0AF8E88F16F3E19F06A10446
:103BC000B10408F42CC188E496E00E94850F4AE015
:103BD000C501B4010E94F20E86E596E00E94360F00
:103BE0000E94F2101092850980918709811123C0EB
:103BF000809180098823F9F0809186098823D9F083
:103C000080917C0990917D09A0917E09B0917F09F6
:103C10000097A105B10579F0A7019601281B390B82
:103C20004A0B5B0BDA01C90180379741A105B10549
:103C300010F00E94F2108091780990917909009714
:103C400049F0DC01ED91FC910088F189E02DB7018C
:103C5000A60109958091BD089091BE08A091BF086A
:103C6000B091C008A7019601281B390B4A0B5B0BCA
:103C7000DA01C901843F9140A105B10530F1C0923C
:103C8000BD08D092BE08E092BF08F092C0080E9422
:103C9000D601B82E8091BC0841E0B41219C181113F
:103CA00019C181E00E943902892B09F01FC180915E
:103CB000BB088111CDC0C092B708D092B808E0927D
:103CC000B908F092BA08B092BB08112331F0612F05
:103CD000772D802F962D0E9451148EE999E00E9435
:103CE000800E882341F06091A6096095617082E0A2
:103CF00090E00E942D138091BC08882309F401C133
:103D000082EC99E00E94800E882341F06091CA09FC
:103D10006095617082E090E00E942D1380EB99E045
:103D20000E94800EA0E0B0E0AB2B09F4CECE0E9442
:103D30000000CBCE87E495E00E94360F15E413CE49
:103D400088E294E079CE88E294E083CE88E294E041
:103D50008DCE809168090E94CD06182F612C00E05D
:103D6000712C882309F4E5CE8090AF089090B008BC
:103D7000A090B108B090B2082FEF821A920AA20A5E
:103D8000B20A3FE383229924AA24BB248091B3087A
:103D90009091B408A091B508B091B608881599051E
:103DA000AA05BB0509F4B2CE809168090E94CD0630
:103DB00044E050E0BE016F5F7F4F809168090E9430
:103DC000A30604970CF4A2CE8091AF089091B0089E
:103DD000A091B108B091B208880F991F880F991F60
:103DE0008155984F49815A816B817C81DC014D93CB
:103DF0005D936D937C9313978092AF089092B00877
:103E0000A092B108B092B208BFEF8B1A9B0AAB0A1E
:103E1000BB0AEFE38E229924AA24BB24B7CFC501A5
:103E2000B401A20191010E94B51F672B682B692B79
:103E300009F0DACE88E496E00E94850F4AE0C501D9
:103E4000B4010E94F20E86EC93E00E94360FCCCEB5
:103E50008091B7089091B808A091B908B091BA08BC
:103E6000C81AD90AEA0AFB0A58EEC51653E0D50665
:103E7000E104F10408F429CFB092BC088CE696E086
:103E80000E94360F87EB96E00E94360F83E0E82E03
:103E9000F12C82EC99E00E94800E80EB99E00E9468
:103EA000800E8EE999E00E94800E65E070E080E06F
:103EB00090E00E94010581E0E81AF10851F787E0DF
:103EC00097E00E94360F83E397E00E94360FFDCE05
:103ED000882361F081E00E943902892B09F4F5CE34
:103EE00084E697E00E94360F1092BC081092BB083F
:103EF0001092B7081092B8081092B9081092BA0838
:103F0000E4CE82EC99E00E94800E882341F060911B
:103F1000CA096095617090E080E00E942D1380EBEB
:103F200099E00E94800E882309F4FCCE6091B809C4
:103F30006095617081E090E00E942D13F3CEF999B5
:103F4000FECF92BD81BDF89A992780B50895262F9E
:103F5000F999FECF1FBA92BD81BD20BD0FB6F8946E
:103F6000FA9AF99A0FBE01960895A1E21A2EAA1B99
:103F7000BB1BFD010DC0AA1FBB1FEE1FFF1FA21719
:103F8000B307E407F50720F0A21BB30BE40BF50B16
:103F9000661F771F881F991F1A9469F7609570959F
:103FA000809590959B01AC01BD01CF010895052E30
:103FB00097FB1EF400940E94EE1F57FD07D00E944D
:103FC000B51F07FC03D04EF40C94EE1F509540959E
:103FD000309521953F4F4F4F5F4F089590958095B5
:103FE000709561957F4F8F4F9F4F0895EE0FFF1F84
:103FF0000590F491E02D09940F931F93CF93DF93D5
:104000008230910510F482E090E0E091C60AF091D0
:10401000C70A30E020E0B0E0A0E0309799F4211525
:10402000310509F44AC0281B390B24303105D8F575
:104030008A819B816115710589F1FB0193838283DC
:10404000FE0111C040815181028113814817590737
:10405000E0F04817590799F4109761F012960C9305
:10406000129713961C933296CF01DF91CF911F9137
:104070000F9108950093C60A1093C70AF4CF211533
:10408000310551F04217530738F0A901DB019A01BD
:10409000BD01DF01F801C1CFEF01F9CF9093C70A4D
:1040A0008093C60ACDCFFE01E20FF31F8193919357
:1040B0002250310939832883D7CF2091C40A309107
:1040C000C50A232B41F4209116013091170130933A
:1040D000C50A2093C40A20911401309115012115BD
:1040E000310541F42DB73EB74091180150911901A7
:1040F000241B350BE091C40AF091C50AE217F307BF
:10410000A0F42E1B3F0B2817390778F0AC014E5F47
:104110005F4F2417350748F04E0F5F1F5093C50AB5
:104120004093C40A819391939FCFF0E0E0E09CCF4D
:10413000CF93DF930097E9F0FC013297138212824C
:10414000A091C60AB091C70AED0130E020E01097B7
:10415000A1F420813181820F931F2091C40A3091F4
:10416000C50A2817390709F061C0F093C50AE09322
:10417000C40ADF91CF910895EA01CE17DF07E8F571
:104180004A815B819E0141155105B1F7E901FB832D
:10419000EA8349915991C40FD51FEC17FD0761F4CB
:1041A000808191810296840F951FE901998388830C
:1041B000828193819B838A83F0E0E0E012968D9167
:1041C0009C9113970097B9F52D913C911197CD01D2
:1041D0000296820F931F2091C40A3091C50A2817B6
:1041E000390739F6309751F51092C70A1092C60A6E
:1041F000B093C50AA093C40ABCCFD383C2834081C5
:104200005181840F951FC817D90761F44E5F5F4F26
:1042100088819981480F591F518340838A819B81EE
:10422000938382832115310509F0B0CFF093C70A3B
:10423000E093C60A9ECFFD01DC01C0CF138212823B
:06424000D7CFF894FFCF78
:1042460000C18081000000FFFFFFFF00E1000000C9
:10425600000000FF0000C80A800000000000570DA3
:104266002C0D130D0C0DF10CEC0CAB0C8F0C690C1A
:104276002C0C0000BA0AAA0A940A720A500A3A0AD0
:10428600180AF609D409000000002A081408430891
:104296004008920848086A0800000000A2081B09A6
:1042A600E008C50800000000660A66097D0A7C0A67
:1042B60000000000830A850A800ADD150000000060
:1042C600E012A7123B12E41100000000590ED804B8
:1042D60000000000570D4B0D130D0C0DF10CEC0CEE
:1042E600AB0C130C690CDE0F9E0B00000000570D83
:1042F600550D130D0C0DF10CEC0CAB0C7B0D690C74
:10430600DE0FFA0D00000000570D3A0D130D0C0DCF
:10431600F10CEC0CAB0C920D690CDE0F1A0E0000C2
:104326000000570D3A0D130D0C0DF10CEC0CAB0CF7
:10433600DC0B690CDE0FBA0B00000000570D3A0DBE
:10434600130D0C0DF10CEC0CAB0CC80D690CDE0F4B
:10435600480E00000000570D3A0D130D0C0DF10C20
:10436600EC0CAB0CAD0D690CDE0F2F0E000000003F
:10437600570D3A0D130D0C0DF10CEC0CAB0CDC0BC0
:10438600690CDE0F910B00000000570D170D130D81
:104396000C0DF10CEC0CAB0C880C870C0D0A0041D3
:1043A6006C6C206B6579732072656C6561736564EE
:1043B60000456C4275674B657965723A20456E64B7
:1043C600696E6720656C656D656E742000206E658C
:1043D600787450756C73653D00456C4275674B6526
:1043E6007965723A205374617274696E6720656CE0
:1043F600656D656E742000206475726174696F6EF8
:104406003D0053657474696E67206E6F746520692C
:104416006E20736C6F74200020746F204D494449E0
:10442600206E6F746520230020286672657175659D
:104436006E63793A2000487A290053657474696E70
:104446006720746F6E6520696E20736C6F74200030
:1044560020746F206672657175656E63793A200007
:1044660042757A7A65722073746F70706564004263
:10447600757A7A657220706C6179696E67206672EA
:10448600657175656E63793A2000436C6561726982
:104496006E6720746F6E6520696E20736C6F742072
:1044A6000042757A7A65722044697361626C65644C
:1044B600004449540044414800444E0055500052BF
:1044C60045433A204669727374206B657920444FE0
:1044D600574E202D207374617274696E672074695B
:1044E6006D696E672028706164646C653D00524595
:1044F600435B005D3A200020706164646C653D009A
:10450600206475723D006D730044697420686F6C99
:104516006420737461727465640044697420726502
:104526006C65617365642061667465722000536111
:1045360076656420746F20454550524F4D202D20DE
:104546004B657965723A20002C20446974204475C5
:10455600726174696F6E3A20002C205458204E6F99
:1045660074653A20004F4E004F4646004B6579620F
:104576006F617264206D6F64653A2000446974202F
:104586006475726174696F6E2073657420746F3A16
:1045960020005458204E6F74652073657420746F24
:1045A6003A20004B65796572206D6F6465207365EE
:1045B6007420746F3A20004B65796572206D6F64C4
:1045C600652073657420746F2070617373746872EC
:1045D6006F75676820286F7220696E76616C6964F2
:1045E600293A2000454550524F4D2076616C75653D
:1045F60073202D204B657965723A2000454550524F
:104606004F4D20696E697469616C697A696E6720BD
:10461600776974682064656661756C742076616C70
:104626007565732E2E2E00454550524F4D20696EEE
:10463600697469616C697A65642E204C6F6164697E
:104646006E672074686573652064656661756C7451
:1046560073206E6F772E004D494449000A0A566151
:10466600696C204164617074657220737461727440
:10467600696E67206F6E3A200041726475696E6FCD
:10468600204D6963726F00454550524F4D206E6F45
:104696007420696E697469616C697A65642C207529
:1046A60073696E672064656661756C7420746F6EDD
:1046B6006500506C6179696E67205641494C2069E6
:1046C6006E204D6F72736520636F64652061742080
:1046D60032302057504D004164617074657220730A
:1046E600657474696E6773206C6F61646564202DF0
:1046F600204B657965723A20002C20446974204469
:1047060075726174696F6E20286D73293A200042B4
:10471600757A7A657220696E697469616C6C793A2A
:104726002000526164696F204D6F646520696E696F
:104736007469616C6C793A2000526164696F204B30
:1047460065796572204D6F646520696E697469616B
:104756006C6C793A200054525320706C7567207047
:104766006F74656E7469616C6C79206465746563D9
:1047760074656420284441482070696E2067726F12
:10478600756E646564292E004469742068656C64DE
:1047960020666F7220006D73202D2064697361623C
:1047A6006C696E672062757A7A657200545253207E
:1047B6004341424C452044455445435445442028F2
:1047C600686F742D706C7567293A204441482070D3
:1047D600696E2067726F756E646564207768696CB0
:1047E6006520696E205374726169676874204B6531
:1047F60079206D6F646500456E61626C696E672035
:10480600545253206D6F64653A20444954207069B0
:104816006E2077696C6C206265207573656420660E
:104826006F72207374726169676874206B65792092
:10483600696E7075742C204441482070696E206939
:10484600676E6F72656400466C75736865642042B6
:104856006F756E636520737461746520666F722070
:104866006469742F6461682F6B657920696E707551
:10487600747300545253206D6F64652061637469CC
:1048860076652E205374726169676874206B65794A
:1048960020696E70757420766961204449542070D1
:1048A600696E2E00545253206361626C6520756EEA
:1048B600706C75676765642028444148206E6F20D8
:1048C6006C6F6E6765722067726F756E64656429BA
:0248D6000000E0
:00000001FF
